{
  "contractName": "Roulette",
  "abi": [
    {
      "constant": true,
      "inputs": [
        {
          "name": "",
          "type": "uint256"
        }
      ],
      "name": "bets",
      "outputs": [
        {
          "name": "betType",
          "type": "uint8"
        },
        {
          "name": "player",
          "type": "address"
        },
        {
          "name": "number",
          "type": "uint256"
        },
        {
          "name": "value",
          "type": "uint256"
        }
      ],
      "payable": false,
      "stateMutability": "view",
      "type": "function"
    },
    {
      "constant": true,
      "inputs": [],
      "name": "nextRoundTimestamp",
      "outputs": [
        {
          "name": "",
          "type": "uint256"
        }
      ],
      "payable": false,
      "stateMutability": "view",
      "type": "function"
    },
    {
      "constant": true,
      "inputs": [],
      "name": "lastRoundTimestamp",
      "outputs": [
        {
          "name": "",
          "type": "uint256"
        }
      ],
      "payable": false,
      "stateMutability": "view",
      "type": "function"
    },
    {
      "constant": true,
      "inputs": [],
      "name": "_interval",
      "outputs": [
        {
          "name": "",
          "type": "uint256"
        }
      ],
      "payable": false,
      "stateMutability": "view",
      "type": "function"
    },
    {
      "constant": true,
      "inputs": [],
      "name": "_creator",
      "outputs": [
        {
          "name": "",
          "type": "address"
        }
      ],
      "payable": false,
      "stateMutability": "view",
      "type": "function"
    },
    {
      "constant": true,
      "inputs": [],
      "name": "message",
      "outputs": [
        {
          "name": "",
          "type": "string"
        }
      ],
      "payable": false,
      "stateMutability": "view",
      "type": "function"
    },
    {
      "inputs": [],
      "payable": true,
      "stateMutability": "payable",
      "type": "constructor"
    },
    {
      "anonymous": false,
      "inputs": [
        {
          "indexed": false,
          "name": "number",
          "type": "uint256"
        },
        {
          "indexed": false,
          "name": "nextRoundTimestamp",
          "type": "uint256"
        }
      ],
      "name": "Finished",
      "type": "event"
    },
    {
      "constant": true,
      "inputs": [],
      "name": "getBetsCountAndValue",
      "outputs": [
        {
          "name": "",
          "type": "uint256"
        },
        {
          "name": "",
          "type": "uint256"
        },
        {
          "name": "",
          "type": "string"
        }
      ],
      "payable": false,
      "stateMutability": "view",
      "type": "function"
    },
    {
      "constant": true,
      "inputs": [
        {
          "name": "betType",
          "type": "uint8"
        }
      ],
      "name": "getPayoutForType",
      "outputs": [
        {
          "name": "",
          "type": "uint256"
        }
      ],
      "payable": false,
      "stateMutability": "view",
      "type": "function"
    },
    {
      "constant": false,
      "inputs": [
        {
          "name": "number",
          "type": "uint256"
        }
      ],
      "name": "betSingle",
      "outputs": [],
      "payable": true,
      "stateMutability": "payable",
      "type": "function"
    },
    {
      "constant": false,
      "inputs": [],
      "name": "betEven",
      "outputs": [],
      "payable": true,
      "stateMutability": "payable",
      "type": "function"
    },
    {
      "constant": false,
      "inputs": [],
      "name": "betOdd",
      "outputs": [],
      "payable": true,
      "stateMutability": "payable",
      "type": "function"
    },
    {
      "constant": false,
      "inputs": [],
      "name": "launch",
      "outputs": [],
      "payable": true,
      "stateMutability": "payable",
      "type": "function"
    },
    {
      "constant": false,
      "inputs": [],
      "name": "kill",
      "outputs": [],
      "payable": false,
      "stateMutability": "nonpayable",
      "type": "function"
    }
  ],
  "bytecode": "0x60606040526040805190810160405280600f81526020017f5072656d696572204d65737361676500000000000000000000000000000000008152506002908051906020019061004f9291906100a9565b50600a60048190555033600360006101000a81548173ffffffffffffffffffffffffffffffffffffffff021916908373ffffffffffffffffffffffffffffffffffffffff160217905550600454420160018190555061014e565b828054600181600116156101000203166002900490600052602060002090601f016020900481019282601f106100ea57805160ff1916838001178555610118565b82800160010185558215610118579182015b828111156101175782518255916020019190600101906100fc565b5b5090506101259190610129565b5090565b61014b91905b8082111561014757600081600090555060010161012f565b5090565b90565b6110938061015d6000396000f3006060604052600436106100c5576000357c0100000000000000000000000000000000000000000000000000000000900463ffffffff16806301339c21146100ca57806322af00fa146100d457806326eafae91461015a57806341c0e1b5146101945780634bb0948d146101a9578063703bf91f146101d257806384beb6e6146101ea578063aa91c9c614610213578063adde36bb1461023c578063bc8bde6414610246578063e21f37ce1461029b578063ef37cfe914610329578063f4519035146103c5575b600080fd5b6100d26103cf565b005b34156100df57600080fd5b6100f560048080359060200190919050506106d2565b6040518085600281111561010557fe5b60ff1681526020018473ffffffffffffffffffffffffffffffffffffffff1673ffffffffffffffffffffffffffffffffffffffff16815260200183815260200182815260200194505050505060405180910390f35b341561016557600080fd5b61017e600480803560ff1690602001909190505061073e565b6040518082815260200191505060405180910390f35b341561019f57600080fd5b6101a76107b9565b005b34156101b457600080fd5b6101bc610850565b6040518082815260200191505060405180910390f35b6101e86004808035906020019091905050610856565b005b34156101f557600080fd5b6101fd610a28565b6040518082815260200191505060405180910390f35b341561021e57600080fd5b610226610a2e565b6040518082815260200191505060405180910390f35b610244610a34565b005b341561025157600080fd5b610259610bf6565b604051808273ffffffffffffffffffffffffffffffffffffffff1673ffffffffffffffffffffffffffffffffffffffff16815260200191505060405180910390f35b34156102a657600080fd5b6102ae610c1c565b6040518080602001828103825283818151815260200191508051906020019080838360005b838110156102ee5780820151818401526020810190506102d3565b50505050905090810190601f16801561031b5780820380516001836020036101000a031916815260200191505b509250505060405180910390f35b341561033457600080fd5b61033c610cba565b6040518084815260200183815260200180602001828103825283818151815260200191508051906020019080838360005b8381101561038857808201518184015260208101905061036d565b50505050905090810190601f1680156103b55780820380516001836020036101000a031916815260200191505b5094505050505060405180910390f35b6103cd610dc2565b005b600080600080600060015442101515156103e857600080fd5b60256001430340600190048115156103fc57fe5b069450600093505b6005805490508410156106635760009250600091506000600281111561042657fe5b60058581548110151561043557fe5b906000526020600020906003020160000160009054906101000a900460ff16600281111561045f57fe5b1415610497578460058581548110151561047557fe5b906000526020600020906003020160010154141561049257600192505b610582565b6002808111156104a357fe5b6005858154811015156104b257fe5b906000526020600020906003020160000160009054906101000a900460ff1660028111156104dc57fe5b141561050d576000851180156104fe575060006002868115156104fb57fe5b06145b1561050857600192505b610581565b6001600281111561051a57fe5b60058581548110151561052957fe5b906000526020600020906003020160000160009054906101000a900460ff16600281111561055357fe5b1415610580576000851180156105755750600160028681151561057257fe5b06145b1561057f57600192505b5b5b5b82156106565760058481548110151561059757fe5b906000526020600020906003020160000160019054906101000a900473ffffffffffffffffffffffffffffffffffffffff1673ffffffffffffffffffffffffffffffffffffffff166108fc6106186005878154811015156105f457fe5b906000526020600020906003020160000160009054906101000a900460ff1661073e565b60058781548110151561062757fe5b906000526020600020906003020160020154029081150290604051600060405180830381858888f19350505050505b8380600101945050610404565b600154905060045481016001819055508060008190555060006005816106899190610f85565b507f635405568db0e3818a3ddd46a30dfdfb58fdb8d10b69258ea0c1abbbb7fc55f685600154604051808381526020018281526020019250505060405180910390a15050505050565b6005818154811015156106e157fe5b90600052602060002090600302016000915090508060000160009054906101000a900460ff16908060000160019054906101000a900473ffffffffffffffffffffffffffffffffffffffff16908060010154908060020154905084565b600080600281111561074c57fe5b82600281111561075857fe5b141561076757602390506107b4565b60028081111561077357fe5b82600281111561077f57fe5b14806107a157506001600281111561079357fe5b82600281111561079f57fe5b145b156107af57600290506107b4565b600090505b919050565b600360009054906101000a900473ffffffffffffffffffffffffffffffffffffffff1673ffffffffffffffffffffffffffffffffffffffff163373ffffffffffffffffffffffffffffffffffffffff1614151561081557600080fd5b600360009054906101000a900473ffffffffffffffffffffffffffffffffffffffff1673ffffffffffffffffffffffffffffffffffffffff16ff5b60015481565b6000341415151561086657600080fd5b6000806000809150600090505b6005805490508110156108e95760058181548110151561088f57fe5b9060005260206000209060030201600201546108d76005838154811015156108b357fe5b906000526020600020906003020160000160009054906101000a900460ff1661073e565b02820191508080600101915050610873565b346108f38461073e565b02820191503073ffffffffffffffffffffffffffffffffffffffff1631821115151561091e57600080fd5b6024841115151561092e57600080fd5b600580548060010182816109429190610fb7565b916000526020600020906003020160006080604051908101604052806000600281111561096b57fe5b81526020013373ffffffffffffffffffffffffffffffffffffffff16815260200188815260200134815250909190915060008201518160000160006101000a81548160ff021916908360028111156109bf57fe5b021790555060208201518160000160016101000a81548173ffffffffffffffffffffffffffffffffffffffff021916908373ffffffffffffffffffffffffffffffffffffffff160217905550604082015181600101556060820151816002015550505050505050565b60005481565b60045481565b60003414151515610a4457600080fd5b600260008060009150600090505b600580549050811015610ac857600581815481101515610a6e57fe5b906000526020600020906003020160020154610ab6600583815481101515610a9257fe5b906000526020600020906003020160000160009054906101000a900460ff1661073e565b02820191508080600101915050610a52565b34610ad28461073e565b02820191503073ffffffffffffffffffffffffffffffffffffffff16318211151515610afd57600080fd5b60058054806001018281610b119190610fb7565b91600052602060002090600302016000608060405190810160405280600280811115610b3957fe5b81526020013373ffffffffffffffffffffffffffffffffffffffff1681526020016000815260200134815250909190915060008201518160000160006101000a81548160ff02191690836002811115610b8e57fe5b021790555060208201518160000160016101000a81548173ffffffffffffffffffffffffffffffffffffffff021916908373ffffffffffffffffffffffffffffffffffffffff1602179055506040820151816001015560608201518160020155505050505050565b600360009054906101000a900473ffffffffffffffffffffffffffffffffffffffff1681565b60028054600181600116156101000203166002900480601f016020809104026020016040519081016040528092919081815260200182805460018160011615610100020316600290048015610cb25780601f10610c8757610100808354040283529160200191610cb2565b820191906000526020600020905b815481529060010190602001808311610c9557829003601f168201915b505050505081565b600080610cc5610fe9565b60008060009150600090505b600580549050811015610d1057600581815481101515610ced57fe5b906000526020600020906003020160020154820191508080600101915050610cd1565b600580549050826002808054600181600116156101000203166002900480601f016020809104026020016040519081016040528092919081815260200182805460018160011615610100020316600290048015610dae5780601f10610d8357610100808354040283529160200191610dae565b820191906000526020600020905b815481529060010190602001808311610d9157829003601f168201915b505050505090509450945094505050909192565b60003414151515610dd257600080fd5b600160008060009150600090505b600580549050811015610e5657600581815481101515610dfc57fe5b906000526020600020906003020160020154610e44600583815481101515610e2057fe5b906000526020600020906003020160000160009054906101000a900460ff1661073e565b02820191508080600101915050610de0565b34610e608461073e565b02820191503073ffffffffffffffffffffffffffffffffffffffff16318211151515610e8b57600080fd5b60058054806001018281610e9f9190610fb7565b9160005260206000209060030201600060806040519081016040528060016002811115610ec857fe5b81526020013373ffffffffffffffffffffffffffffffffffffffff1681526020016000815260200134815250909190915060008201518160000160006101000a81548160ff02191690836002811115610f1d57fe5b021790555060208201518160000160016101000a81548173ffffffffffffffffffffffffffffffffffffffff021916908373ffffffffffffffffffffffffffffffffffffffff1602179055506040820151816001015560608201518160020155505050505050565b815481835581811511610fb257600302816003028360005260206000209182019101610fb19190610ffd565b5b505050565b815481835581811511610fe457600302816003028360005260206000209182019101610fe39190610ffd565b5b505050565b602060405190810160405280600081525090565b61106491905b8082111561106057600080820160006101000a81549060ff02191690556000820160016101000a81549073ffffffffffffffffffffffffffffffffffffffff02191690556001820160009055600282016000905550600301611003565b5090565b905600a165627a7a72305820e75e1867948619407b96c428a90416290a3b33349b6f18a3f6cca111a08b07680029",
  "source": "pragma solidity ^0.4.17;\ncontract Roulette {\n\n    uint public lastRoundTimestamp;\n    uint public nextRoundTimestamp;\n    string public message = \"Premier Message\";\n    address public _creator;\n    uint public _interval;\n\n    enum BetType { Single, Odd, Even }\n\n    struct Bet {\n        BetType betType;\n        address player;\n        uint number;\n        uint value;\n    }\n\n    Bet[] public bets;\n\n    function getBetsCountAndValue() public constant returns(uint, uint,string) {\n        uint value = 0;\n        for (uint i = 0; i < bets.length; i++) {\n            value += bets[i].value;\n        }\n        return (bets.length, value,message);\n    }\n\n    event Finished(uint number, uint nextRoundTimestamp);\n\n    modifier transactionMustContainEther() {\n        require(msg.value != 0);\n        _;\n    }\n\n    modifier bankMustBeAbleToPayForBetType(BetType betType) {\n        uint necessaryBalance = 0;\n        for (uint i = 0; i < bets.length; i++) {\n            necessaryBalance += getPayoutForType(bets[i].betType) * bets[i].value;\n        }\n        necessaryBalance += getPayoutForType(betType) * msg.value;\n        require(necessaryBalance <= this.balance);\n        _;\n    }\n\n    function getPayoutForType(BetType betType) constant returns(uint) {\n        if (betType == BetType.Single) return 35;\n        if (betType == BetType.Even || betType == BetType.Odd) return 2;\n        return 0;\n    }\n\n    function Roulette() payable {\n        _interval =10;\n        _creator = msg.sender;\n        nextRoundTimestamp = now + _interval;\n    }\n\n    function betSingle(uint number) public  payable transactionMustContainEther() bankMustBeAbleToPayForBetType(BetType.Single) {\n\n            require(number <= 36);\n            bets.push(Bet({\n            betType: BetType.Single,\n            player: msg.sender,\n            number: number,\n            value: msg.value\n        }));\n    }\n\n    function betEven() public payable transactionMustContainEther() bankMustBeAbleToPayForBetType(BetType.Even) {\n        bets.push(Bet({\n            betType: BetType.Even,\n            player: msg.sender,\n            number: 0,\n            value: msg.value\n        }));\n    }\n\n    function betOdd() public payable transactionMustContainEther() bankMustBeAbleToPayForBetType(BetType.Odd) {\n        bets.push(Bet({\n            betType: BetType.Odd,\n            player: msg.sender,\n            number: 0,\n            value: msg.value\n        }));\n    }\n\n    function launch() public payable {\n\n        require(now >= nextRoundTimestamp);\n        uint number = uint(block.blockhash(block.number - 1)) % 37;\n\n        for (uint i = 0; i < bets.length; i++) {\n            bool won = false;\n            uint payout = 0;\n            if (bets[i].betType == BetType.Single) {\n                if (bets[i].number == number) {\n                    won = true;\n                }\n            } else if (bets[i].betType == BetType.Even) {\n                if (number > 0 && number % 2 == 0) {\n                    won = true;\n                }\n            } else if (bets[i].betType == BetType.Odd) {\n                if (number > 0 && number % 2 == 1) {\n                    won = true;\n                }\n            }\n            if (won) {\n                bets[i].player.send(bets[i].value * getPayoutForType(bets[i].betType));\n            }\n        }\n\n        uint thisRoundTimestamp = nextRoundTimestamp;\n        nextRoundTimestamp = thisRoundTimestamp + _interval;\n        lastRoundTimestamp = thisRoundTimestamp;\n\n        bets.length = 0;\n\n        Finished(number, nextRoundTimestamp);\n    }\n\n\n\n\n\n    function kill() public {\n      require(msg.sender == _creator);\n      suicide(_creator);\n    }\n\n}\n",
  "sourcePath": "/home/c2i/tpe2/Roulette/contracts/Roulette.sol",
  "compiler": {
    "name": "solc",
    "version": "0.4.21+commit.dfe3193c.Emscripten.clang"
  },
  "schemaVersion": "2.0.0",
  "updatedAt": "2018-06-02T11:11:51.088Z"
}